{
    "_format": "hh-sol-artifact-1",
    "contractName": "WavePortal",
    "sourceName": "contracts/WavePortal.sol",
    "abi": [
        {
            "inputs": [],
            "stateMutability": "nonpayable",
            "type": "constructor"
        },
        {
            "anonymous": false,
            "inputs": [
                {
                    "indexed": true,
                    "internalType": "address",
                    "name": "from",
                    "type": "address"
                },
                {
                    "indexed": false,
                    "internalType": "uint256",
                    "name": "timestamp",
                    "type": "uint256"
                },
                {
                    "indexed": false,
                    "internalType": "string",
                    "name": "message",
                    "type": "string"
                }
            ],
            "name": "NewWave",
            "type": "event"
        },
        {
            "inputs": [],
            "name": "getAllWaves",
            "outputs": [
                {
                    "components": [
                        {
                            "internalType": "address",
                            "name": "waver",
                            "type": "address"
                        },
                        {
                            "internalType": "string",
                            "name": "message",
                            "type": "string"
                        },
                        {
                            "internalType": "uint256",
                            "name": "timestamp",
                            "type": "uint256"
                        }
                    ],
                    "internalType": "struct WavePortal.Wave[]",
                    "name": "",
                    "type": "tuple[]"
                }
            ],
            "stateMutability": "view",
            "type": "function"
        },
        {
            "inputs": [],
            "name": "getTotalWaves",
            "outputs": [
                {
                    "internalType": "uint256",
                    "name": "",
                    "type": "uint256"
                }
            ],
            "stateMutability": "view",
            "type": "function"
        },
        {
            "inputs": [
                {
                    "internalType": "string",
                    "name": "_message",
                    "type": "string"
                }
            ],
            "name": "wave",
            "outputs": [],
            "stateMutability": "nonpayable",
            "type": "function"
        }
    ],
    "bytecode": "0x60806040523480156200001157600080fd5b506200004160405180606001604052806025815260200162000e86602591396200004760201b620003e81760201c565b620001db565b620000e7816040516024016200005e919062000154565b6040516020818303038152906040527f41304fac000000000000000000000000000000000000000000000000000000007bffffffffffffffffffffffffffffffffffffffffffffffffffffffff19166020820180517bffffffffffffffffffffffffffffffffffffffffffffffffffffffff8381831617835250505050620000ea60201b60201c565b50565b60008151905060006a636f6e736f6c652e6c6f679050602083016000808483855afa5050505050565b6000620001208262000178565b6200012c818562000183565b93506200013e81856020860162000194565b6200014981620001ca565b840191505092915050565b6000602082019050818103600083015262000170818462000113565b905092915050565b600081519050919050565b600082825260208201905092915050565b60005b83811015620001b457808201518184015260208101905062000197565b83811115620001c4576000848401525b50505050565b6000601f19601f8301169050919050565b610c9b80620001eb6000396000f3fe608060405234801561001057600080fd5b50600436106100415760003560e01c8063449d46c0146100465780639a2cdc0814610062578063bd43a90814610080575b600080fd5b610060600480360381019061005b91906106f3565b61009e565b005b61006a61024c565b6040516100779190610989565b60405180910390f35b610088610297565b60405161009591906108bb565b60405180910390f35b60016000808282546100b09190610a90565b9250508190555061012d6040518060400160405280600d81526020017f2573206861732057617665642100000000000000000000000000000000000000815250336040518060400160405280600d81526020017f77697468206d657373616765200000000000000000000000000000000000000081525084610481565b600160405180606001604052803373ffffffffffffffffffffffffffffffffffffffff16815260200183815260200142815250908060018154018082558091505060019003906000526020600020906003020160009091909190915060008201518160000160006101000a81548173ffffffffffffffffffffffffffffffffffffffff021916908373ffffffffffffffffffffffffffffffffffffffff16021790555060208201518160010190805190602001906101ec9291906105e8565b506040820151816002015550503373ffffffffffffffffffffffffffffffffffffffff167f5f7e16dc676677766a70e9c5628aa6c54ddb8b6e5188e2ae1e1f17f1ffbea71642836040516102419291906109a4565b60405180910390a250565b600061028f6040518060400160405280601781526020017f5765206861766520256420746f74616c20776176657321000000000000000000815250600054610523565b600054905090565b60606001805480602002602001604051908101604052809291908181526020016000905b828210156103df57838290600052602060002090600302016040518060600160405290816000820160009054906101000a900473ffffffffffffffffffffffffffffffffffffffff1673ffffffffffffffffffffffffffffffffffffffff1673ffffffffffffffffffffffffffffffffffffffff16815260200160018201805461034490610b64565b80601f016020809104026020016040519081016040528092919081815260200182805461037090610b64565b80156103bd5780601f10610392576101008083540402835291602001916103bd565b820191906000526020600020905b8154815290600101906020018083116103a057829003601f168201915b50505050508152602001600282015481525050815260200190600101906102bb565b50505050905090565b61047e816040516024016103fc91906108dd565b6040516020818303038152906040527f41304fac000000000000000000000000000000000000000000000000000000007bffffffffffffffffffffffffffffffffffffffffffffffffffffffff19166020820180517bffffffffffffffffffffffffffffffffffffffffffffffffffffffff83818316178352505050506105bf565b50565b61051d8484848460405160240161049b94939291906108ff565b6040516020818303038152906040527f245986f2000000000000000000000000000000000000000000000000000000007bffffffffffffffffffffffffffffffffffffffffffffffffffffffff19166020820180517bffffffffffffffffffffffffffffffffffffffffffffffffffffffff83818316178352505050506105bf565b50505050565b6105bb8282604051602401610539929190610959565b6040516020818303038152906040527f9710a9d0000000000000000000000000000000000000000000000000000000007bffffffffffffffffffffffffffffffffffffffffffffffffffffffff19166020820180517bffffffffffffffffffffffffffffffffffffffffffffffffffffffff83818316178352505050506105bf565b5050565b60008151905060006a636f6e736f6c652e6c6f679050602083016000808483855afa5050505050565b8280546105f490610b64565b90600052602060002090601f016020900481019282610616576000855561065d565b82601f1061062f57805160ff191683800117855561065d565b8280016001018555821561065d579182015b8281111561065c578251825591602001919060010190610641565b5b50905061066a919061066e565b5090565b5b8082111561068757600081600090555060010161066f565b5090565b600061069e610699846109f9565b6109d4565b9050828152602081018484840111156106b657600080fd5b6106c1848285610b22565b509392505050565b600082601f8301126106da57600080fd5b81356106ea84826020860161068b565b91505092915050565b60006020828403121561070557600080fd5b600082013567ffffffffffffffff81111561071f57600080fd5b61072b848285016106c9565b91505092915050565b6000610740838361084d565b905092915050565b61075181610ae6565b82525050565b61076081610ae6565b82525050565b600061077182610a3a565b61077b8185610a5d565b93508360208202850161078d85610a2a565b8060005b858110156107c957848403895281516107aa8582610734565b94506107b583610a50565b925060208a01995050600181019050610791565b50829750879550505050505092915050565b60006107e682610a45565b6107f08185610a6e565b9350610800818560208601610b31565b61080981610c54565b840191505092915050565b600061081f82610a45565b6108298185610a7f565b9350610839818560208601610b31565b61084281610c54565b840191505092915050565b60006060830160008301516108656000860182610748565b506020830151848203602086015261087d82826107db565b9150506040830151610892604086018261089d565b508091505092915050565b6108a681610b18565b82525050565b6108b581610b18565b82525050565b600060208201905081810360008301526108d58184610766565b905092915050565b600060208201905081810360008301526108f78184610814565b905092915050565b600060808201905081810360008301526109198187610814565b90506109286020830186610757565b818103604083015261093a8185610814565b9050818103606083015261094e8184610814565b905095945050505050565b600060408201905081810360008301526109738185610814565b905061098260208301846108ac565b9392505050565b600060208201905061099e60008301846108ac565b92915050565b60006040820190506109b960008301856108ac565b81810360208301526109cb8184610814565b90509392505050565b60006109de6109ef565b90506109ea8282610b96565b919050565b6000604051905090565b600067ffffffffffffffff821115610a1457610a13610c25565b5b610a1d82610c54565b9050602081019050919050565b6000819050602082019050919050565b600081519050919050565b600081519050919050565b6000602082019050919050565b600082825260208201905092915050565b600082825260208201905092915050565b600082825260208201905092915050565b6000610a9b82610b18565b9150610aa683610b18565b9250827fffffffffffffffffffffffffffffffffffffffffffffffffffffffffffffffff03821115610adb57610ada610bc7565b5b828201905092915050565b6000610af182610af8565b9050919050565b600073ffffffffffffffffffffffffffffffffffffffff82169050919050565b6000819050919050565b82818337600083830152505050565b60005b83811015610b4f578082015181840152602081019050610b34565b83811115610b5e576000848401525b50505050565b60006002820490506001821680610b7c57607f821691505b60208210811415610b9057610b8f610bf6565b5b50919050565b610b9f82610c54565b810181811067ffffffffffffffff82111715610bbe57610bbd610c25565b5b80604052505050565b7f4e487b7100000000000000000000000000000000000000000000000000000000600052601160045260246000fd5b7f4e487b7100000000000000000000000000000000000000000000000000000000600052602260045260246000fd5b7f4e487b7100000000000000000000000000000000000000000000000000000000600052604160045260246000fd5b6000601f19601f830116905091905056fea26469706673582212201d064b3b7f4a9310629549a7be8fbe013f73153d10b9dc63a4c9011cc273737664736f6c63430008040033596f20796f2c204920616d206120636f6e747261637420616e64204920616d20736d617274",
    "linkReferences": {},
    "deployedLinkReferences": {}
}