{
    "_format": "hh-sol-artifact-1",
    "contractName": "WavePortal",
    "sourceName": "contracts/WavePortal.sol",
    "abi": [
        {
            "inputs": [],
            "stateMutability": "nonpayable",
            "type": "constructor"
        },
        {
            "inputs": [],
            "name": "getTotalWaves",
            "outputs": [
                {
                    "internalType": "uint256",
                    "name": "",
                    "type": "uint256"
                }
            ],
            "stateMutability": "view",
            "type": "function"
        },
        {
            "inputs": [],
            "name": "getWavesMapping",
            "outputs": [],
            "stateMutability": "view",
            "type": "function"
        },
        {
            "inputs": [],
            "name": "wave",
            "outputs": [],
            "stateMutability": "nonpayable",
            "type": "function"
        }
    ],
    "bytecode": "0x608060405234801561001057600080fd5b5061003c604051806060016040528060258152602001610b086025913961004160201b6103ca1760201c565b6101c4565b6100dd816040516024016100559190610142565b6040516020818303038152906040527f41304fac000000000000000000000000000000000000000000000000000000007bffffffffffffffffffffffffffffffffffffffffffffffffffffffff19166020820180517bffffffffffffffffffffffffffffffffffffffffffffffffffffffff83818316178352505050506100e060201b60201c565b50565b60008151905060006a636f6e736f6c652e6c6f679050602083016000808483855afa5050505050565b600061011482610164565b61011e818561016f565b935061012e818560208601610180565b610137816101b3565b840191505092915050565b6000602082019050818103600083015261015c8184610109565b905092915050565b600081519050919050565b600082825260208201905092915050565b60005b8381101561019e578082015181840152602081019050610183565b838111156101ad576000848401525b50505050565b6000601f19601f8301169050919050565b610935806101d36000396000f3fe608060405234801561001057600080fd5b50600436106100415760003560e01c80636fe15b44146100465780639134f151146100505780639a2cdc081461005a575b600080fd5b61004e610078565b005b6100586101d4565b005b61006261037f565b60405161006f919061077a565b60405180910390f35b600160008082825461008a91906107b1565b925050819055506000600160003373ffffffffffffffffffffffffffffffffffffffff1673ffffffffffffffffffffffffffffffffffffffff16815260200190815260200160002054141561013d576002339080600181540180825580915050600190039060005260206000200160009091909190916101000a81548173ffffffffffffffffffffffffffffffffffffffff021916908373ffffffffffffffffffffffffffffffffffffffff1602179055505b60018060003373ffffffffffffffffffffffffffffffffffffffff1673ffffffffffffffffffffffffffffffffffffffff168152602001908152602001600020600082825461018c91906107b1565b925050819055506101d26040518060400160405280600d81526020017f257320686173205761766564210000000000000000000000000000000000000081525033610463565b565b6102126040518060400160405280600981526020017f4d617070696e673a2000000000000000000000000000000000000000000000008152506103ca565b60005b60028054905081101561037c576103696002828154811061025f577f4e487b7100000000000000000000000000000000000000000000000000000000600052603260045260246000fd5b9060005260206000200160009054906101000a900473ffffffffffffffffffffffffffffffffffffffff166040518060400160405280600281526020017f3d3e00000000000000000000000000000000000000000000000000000000000081525060016000600286815481106102fe577f4e487b7100000000000000000000000000000000000000000000000000000000600052603260045260246000fd5b9060005260206000200160009054906101000a900473ffffffffffffffffffffffffffffffffffffffff1673ffffffffffffffffffffffffffffffffffffffff1673ffffffffffffffffffffffffffffffffffffffff168152602001908152602001600020546104ff565b808061037490610876565b915050610215565b50565b60006103c26040518060400160405280601781526020017f5765206861766520256420746f74616c2077617665732100000000000000000081525060005461059e565b600054905090565b610460816040516024016103de91906106f8565b6040516020818303038152906040527f41304fac000000000000000000000000000000000000000000000000000000007bffffffffffffffffffffffffffffffffffffffffffffffffffffffff19166020820180517bffffffffffffffffffffffffffffffffffffffffffffffffffffffff838183161783525050505061063a565b50565b6104fb828260405160240161047992919061071a565b6040516020818303038152906040527f319af333000000000000000000000000000000000000000000000000000000007bffffffffffffffffffffffffffffffffffffffffffffffffffffffff19166020820180517bffffffffffffffffffffffffffffffffffffffffffffffffffffffff838183161783525050505061063a565b5050565b610599838383604051602401610517939291906106ba565b6040516020818303038152906040527f1cdaf28a000000000000000000000000000000000000000000000000000000007bffffffffffffffffffffffffffffffffffffffffffffffffffffffff19166020820180517bffffffffffffffffffffffffffffffffffffffffffffffffffffffff838183161783525050505061063a565b505050565b61063682826040516024016105b492919061074a565b6040516020818303038152906040527f9710a9d0000000000000000000000000000000000000000000000000000000007bffffffffffffffffffffffffffffffffffffffffffffffffffffffff19166020820180517bffffffffffffffffffffffffffffffffffffffffffffffffffffffff838183161783525050505061063a565b5050565b60008151905060006a636f6e736f6c652e6c6f679050602083016000808483855afa5050505050565b61066c81610807565b82525050565b600061067d82610795565b61068781856107a0565b9350610697818560208601610843565b6106a0816108ee565b840191505092915050565b6106b481610839565b82525050565b60006060820190506106cf6000830186610663565b81810360208301526106e18185610672565b90506106f060408301846106ab565b949350505050565b600060208201905081810360008301526107128184610672565b905092915050565b600060408201905081810360008301526107348185610672565b90506107436020830184610663565b9392505050565b600060408201905081810360008301526107648185610672565b905061077360208301846106ab565b9392505050565b600060208201905061078f60008301846106ab565b92915050565b600081519050919050565b600082825260208201905092915050565b60006107bc82610839565b91506107c783610839565b9250827fffffffffffffffffffffffffffffffffffffffffffffffffffffffffffffffff038211156107fc576107fb6108bf565b5b828201905092915050565b600061081282610819565b9050919050565b600073ffffffffffffffffffffffffffffffffffffffff82169050919050565b6000819050919050565b60005b83811015610861578082015181840152602081019050610846565b83811115610870576000848401525b50505050565b600061088182610839565b91507fffffffffffffffffffffffffffffffffffffffffffffffffffffffffffffffff8214156108b4576108b36108bf565b5b600182019050919050565b7f4e487b7100000000000000000000000000000000000000000000000000000000600052601160045260246000fd5b6000601f19601f830116905091905056fea26469706673582212208736f2918b1355968d2c8abe31b0dd7bd9e2fb90dea139065ca054983f8b6be564736f6c63430008040033596f20796f2c204920616d206120636f6e747261637420616e64204920616d20736d617274",
    "linkReferences": {},
    "deployedLinkReferences": {}
}