{
    "_format": "hh-sol-artifact-1",
    "contractName": "WavePortal",
    "sourceName": "contracts/WavePortal.sol",
    "abi": [
        {
            "inputs": [],
            "stateMutability": "payable",
            "type": "constructor"
        },
        {
            "anonymous": false,
            "inputs": [
                {
                    "indexed": true,
                    "internalType": "address",
                    "name": "from",
                    "type": "address"
                },
                {
                    "indexed": false,
                    "internalType": "uint256",
                    "name": "timestamp",
                    "type": "uint256"
                },
                {
                    "indexed": false,
                    "internalType": "string",
                    "name": "message",
                    "type": "string"
                }
            ],
            "name": "NewWave",
            "type": "event"
        },
        {
            "inputs": [],
            "name": "getAllWaves",
            "outputs": [
                {
                    "components": [
                        {
                            "internalType": "address",
                            "name": "waver",
                            "type": "address"
                        },
                        {
                            "internalType": "string",
                            "name": "message",
                            "type": "string"
                        },
                        {
                            "internalType": "uint256",
                            "name": "timestamp",
                            "type": "uint256"
                        }
                    ],
                    "internalType": "struct WavePortal.Wave[]",
                    "name": "",
                    "type": "tuple[]"
                }
            ],
            "stateMutability": "view",
            "type": "function"
        },
        {
            "inputs": [],
            "name": "getTotalWaves",
            "outputs": [
                {
                    "internalType": "uint256",
                    "name": "",
                    "type": "uint256"
                }
            ],
            "stateMutability": "view",
            "type": "function"
        },
        {
            "inputs": [
                {
                    "internalType": "string",
                    "name": "_message",
                    "type": "string"
                }
            ],
            "name": "wave",
            "outputs": [],
            "stateMutability": "nonpayable",
            "type": "function"
        }
    ],
    "bytecode": "0x608060405262000033604051806060016040528060258152602001620014dd602591396200005b60201b6200062c1760201c565b60644442620000439190620001a8565b6200004f919062000245565b600081905550620002ec565b620000fb8160405160240162000072919062000168565b6040516020818303038152906040527f41304fac000000000000000000000000000000000000000000000000000000007bffffffffffffffffffffffffffffffffffffffffffffffffffffffff19166020820180517bffffffffffffffffffffffffffffffffffffffffffffffffffffffff8381831617835250505050620000fe60201b60201c565b50565b60008151905060006a636f6e736f6c652e6c6f679050602083016000808483855afa5050505050565b600062000134826200018c565b62000140818562000197565b9350620001528185602086016200020f565b6200015d81620002db565b840191505092915050565b6000602082019050818103600083015262000184818462000127565b905092915050565b600081519050919050565b600082825260208201905092915050565b6000620001b58262000205565b9150620001c28362000205565b9250827fffffffffffffffffffffffffffffffffffffffffffffffffffffffffffffffff03821115620001fa57620001f96200027d565b5b828201905092915050565b6000819050919050565b60005b838110156200022f57808201518184015260208101905062000212565b838111156200023f576000848401525b50505050565b6000620002528262000205565b91506200025f8362000205565b925082620002725762000271620002ac565b5b828206905092915050565b7f4e487b7100000000000000000000000000000000000000000000000000000000600052601160045260246000fd5b7f4e487b7100000000000000000000000000000000000000000000000000000000600052601260045260246000fd5b6000601f19601f8301169050919050565b6111e180620002fc6000396000f3fe608060405234801561001057600080fd5b50600436106100415760003560e01c8063449d46c0146100465780639a2cdc0814610062578063bd43a90814610080575b600080fd5b610060600480360381019061005b91906109d3565b61009e565b005b61006a610490565b6040516100779190610d9a565b60405180910390f35b6100886104db565b6040516100959190610c3c565b60405180910390f35b42610384600260003373ffffffffffffffffffffffffffffffffffffffff1673ffffffffffffffffffffffffffffffffffffffff168152602001908152602001600020546100ec9190610eac565b1061012c576040517f08c379a000000000000000000000000000000000000000000000000000000000815260040161012390610d3a565b60405180910390fd5b42600260003373ffffffffffffffffffffffffffffffffffffffff1673ffffffffffffffffffffffffffffffffffffffff1681526020019081526020016000208190555060018060008282546101829190610eac565b925050819055506101ff6040518060400160405280600d81526020017f2573206861732057617665642100000000000000000000000000000000000000815250336040518060400160405280600d81526020017f77697468206d6573736167652000000000000000000000000000000000000000815250846106c5565b600360405180606001604052803373ffffffffffffffffffffffffffffffffffffffff16815260200183815260200142815250908060018154018082558091505060019003906000526020600020906003020160009091909190915060008201518160000160006101000a81548173ffffffffffffffffffffffffffffffffffffffff021916908373ffffffffffffffffffffffffffffffffffffffff16021790555060208201518160010190805190602001906102be9291906108c8565b506040820151816002015550503373ffffffffffffffffffffffffffffffffffffffff167f5f7e16dc676677766a70e9c5628aa6c54ddb8b6e5188e2ae1e1f17f1ffbea7164283604051610313929190610db5565b60405180910390a26064600054444261032c9190610eac565b6103369190610eac565b6103409190610fe3565b6000819055506032600054101561048d576103906040518060400160405280600681526020017f257320776f6e000000000000000000000000000000000000000000000000000081525033610767565b6000655af3107a40009050478111156103de576040517f08c379a00000000000000000000000000000000000000000000000000000000081526004016103d590610d5a565b60405180910390fd5b60003373ffffffffffffffffffffffffffffffffffffffff168260405161040490610c27565b60006040518083038185875af1925050503d8060008114610441576040519150601f19603f3d011682016040523d82523d6000602084013e610446565b606091505b505090508061048a576040517f08c379a000000000000000000000000000000000000000000000000000000000815260040161048190610d7a565b60405180910390fd5b50505b50565b60006104d36040518060400160405280601781526020017f5765206861766520256420746f74616c20776176657321000000000000000000815250600154610803565b600154905090565b60606003805480602002602001604051908101604052809291908181526020016000905b8282101561062357838290600052602060002090600302016040518060600160405290816000820160009054906101000a900473ffffffffffffffffffffffffffffffffffffffff1673ffffffffffffffffffffffffffffffffffffffff1673ffffffffffffffffffffffffffffffffffffffff16815260200160018201805461058890610f80565b80601f01602080910402602001604051908101604052809291908181526020018280546105b490610f80565b80156106015780601f106105d657610100808354040283529160200191610601565b820191906000526020600020905b8154815290600101906020018083116105e457829003601f168201915b50505050508152602001600282015481525050815260200190600101906104ff565b50505050905090565b6106c2816040516024016106409190610c5e565b6040516020818303038152906040527f41304fac000000000000000000000000000000000000000000000000000000007bffffffffffffffffffffffffffffffffffffffffffffffffffffffff19166020820180517bffffffffffffffffffffffffffffffffffffffffffffffffffffffff838183161783525050505061089f565b50565b610761848484846040516024016106df9493929190610cb0565b6040516020818303038152906040527f245986f2000000000000000000000000000000000000000000000000000000007bffffffffffffffffffffffffffffffffffffffffffffffffffffffff19166020820180517bffffffffffffffffffffffffffffffffffffffffffffffffffffffff838183161783525050505061089f565b50505050565b6107ff828260405160240161077d929190610c80565b6040516020818303038152906040527f319af333000000000000000000000000000000000000000000000000000000007bffffffffffffffffffffffffffffffffffffffffffffffffffffffff19166020820180517bffffffffffffffffffffffffffffffffffffffffffffffffffffffff838183161783525050505061089f565b5050565b61089b8282604051602401610819929190610d0a565b6040516020818303038152906040527f9710a9d0000000000000000000000000000000000000000000000000000000007bffffffffffffffffffffffffffffffffffffffffffffffffffffffff19166020820180517bffffffffffffffffffffffffffffffffffffffffffffffffffffffff838183161783525050505061089f565b5050565b60008151905060006a636f6e736f6c652e6c6f679050602083016000808483855afa5050505050565b8280546108d490610f80565b90600052602060002090601f0160209004810192826108f6576000855561093d565b82601f1061090f57805160ff191683800117855561093d565b8280016001018555821561093d579182015b8281111561093c578251825591602001919060010190610921565b5b50905061094a919061094e565b5090565b5b8082111561096757600081600090555060010161094f565b5090565b600061097e61097984610e0a565b610de5565b90508281526020810184848401111561099657600080fd5b6109a1848285610f3e565b509392505050565b600082601f8301126109ba57600080fd5b81356109ca84826020860161096b565b91505092915050565b6000602082840312156109e557600080fd5b600082013567ffffffffffffffff8111156109ff57600080fd5b610a0b848285016109a9565b91505092915050565b6000610a208383610bb9565b905092915050565b610a3181610f02565b82525050565b610a4081610f02565b82525050565b6000610a5182610e4b565b610a5b8185610e6e565b935083602082028501610a6d85610e3b565b8060005b85811015610aa95784840389528151610a8a8582610a14565b9450610a9583610e61565b925060208a01995050600181019050610a71565b50829750879550505050505092915050565b6000610ac682610e56565b610ad08185610e8a565b9350610ae0818560208601610f4d565b610ae9816110d0565b840191505092915050565b6000610aff82610e56565b610b098185610e9b565b9350610b19818560208601610f4d565b610b22816110d0565b840191505092915050565b6000610b3a601183610e9b565b9150610b45826110e1565b602082019050919050565b6000610b5d603483610e9b565b9150610b688261110a565b604082019050919050565b6000610b80602783610e9b565b9150610b8b82611159565b604082019050919050565b6000610ba3600083610e7f565b9150610bae826111a8565b600082019050919050565b6000606083016000830151610bd16000860182610a28565b5060208301518482036020860152610be98282610abb565b9150506040830151610bfe6040860182610c09565b508091505092915050565b610c1281610f34565b82525050565b610c2181610f34565b82525050565b6000610c3282610b96565b9150819050919050565b60006020820190508181036000830152610c568184610a46565b905092915050565b60006020820190508181036000830152610c788184610af4565b905092915050565b60006040820190508181036000830152610c9a8185610af4565b9050610ca96020830184610a37565b9392505050565b60006080820190508181036000830152610cca8187610af4565b9050610cd96020830186610a37565b8181036040830152610ceb8185610af4565b90508181036060830152610cff8184610af4565b905095945050505050565b60006040820190508181036000830152610d248185610af4565b9050610d336020830184610c18565b9392505050565b60006020820190508181036000830152610d5381610b2d565b9050919050565b60006020820190508181036000830152610d7381610b50565b9050919050565b60006020820190508181036000830152610d9381610b73565b9050919050565b6000602082019050610daf6000830184610c18565b92915050565b6000604082019050610dca6000830185610c18565b8181036020830152610ddc8184610af4565b90509392505050565b6000610def610e00565b9050610dfb8282610fb2565b919050565b6000604051905090565b600067ffffffffffffffff821115610e2557610e246110a1565b5b610e2e826110d0565b9050602081019050919050565b6000819050602082019050919050565b600081519050919050565b600081519050919050565b6000602082019050919050565b600082825260208201905092915050565b600081905092915050565b600082825260208201905092915050565b600082825260208201905092915050565b6000610eb782610f34565b9150610ec283610f34565b9250827fffffffffffffffffffffffffffffffffffffffffffffffffffffffffffffffff03821115610ef757610ef6611014565b5b828201905092915050565b6000610f0d82610f14565b9050919050565b600073ffffffffffffffffffffffffffffffffffffffff82169050919050565b6000819050919050565b82818337600083830152505050565b60005b83811015610f6b578082015181840152602081019050610f50565b83811115610f7a576000848401525b50505050565b60006002820490506001821680610f9857607f821691505b60208210811415610fac57610fab611072565b5b50919050565b610fbb826110d0565b810181811067ffffffffffffffff82111715610fda57610fd96110a1565b5b80604052505050565b6000610fee82610f34565b9150610ff983610f34565b92508261100957611008611043565b5b828206905092915050565b7f4e487b7100000000000000000000000000000000000000000000000000000000600052601160045260246000fd5b7f4e487b7100000000000000000000000000000000000000000000000000000000600052601260045260246000fd5b7f4e487b7100000000000000000000000000000000000000000000000000000000600052602260045260246000fd5b7f4e487b7100000000000000000000000000000000000000000000000000000000600052604160045260246000fd5b6000601f19601f8301169050919050565b7f547279206166746572203135206d696e73000000000000000000000000000000600082015250565b7f547279696e6720746f207769746864726177206d6f7265206d6f6e657920746860008201527f616e2074686520636f6e7472616374206861732e000000000000000000000000602082015250565b7f4661696c656420746f207769746864726177206d6f6e65792066726f6d20636f60008201527f6e74726163742e00000000000000000000000000000000000000000000000000602082015250565b5056fea26469706673582212208c3b1bbcbc091c4ec917d06f96f7f295cd6b5a63e010b385cc4cc65f640fc77964736f6c63430008040033596f20796f2c204920616d206120636f6e747261637420616e64204920616d20736d617274",
    "linkReferences": {},
    "deployedLinkReferences": {}
}